:03000000021F2CB0
:0C1F2C00787FE4F6D8FD758162021F7317
:1022690000A8C0003F065B4F666D7D077F6F777CD6
:10227900395E7971BF86DBCFE6EDFD87FFEF000898
:10228900400141483D76100E7A3855545C736750C9
:1022990065783E1C6A646E5A777C395E79713D7641
:1022A9000F0E753837545C73673149783E1C7E646C
:0222B9006E595C
:0F141B0001540001530001511101500001520012
:0D002E008F4F7B007A00794F7D010224A7DF
:1021AF007F0512239EBF010D05517D127C007F20FC
:1021BF007E031220C07F0212239EBF010D15517D99
:1021CF00127C007F207E031220C07F0312239EBF4C
:1021DF00010E7551117D127C007F207E031220C0ED
:1021EF00E551C394114007E551D3941A4014E551BA
:1021FF00C394115003755111E551D3941A400375CF
:07220F00511AAF5102002E2D
:1015BF00750C1A750D2FE551540FF50E750F1A7521
:1015CF00101C7B2B7D0A7F0C1227CDD39000B1E02E
:1015DF0094329000B0E09400500302175CE4FFFED9
:1015EF007DF07C4190009BE0F8A3E0F9A3E0FAA323
:1015FF00E0FB1202F46041403FE4FFFE7DF07C41CE
:10160F00900097E0F8A3E0F9A3E0FAA3E0FB120241
:10161F00F45025E5547021750C1A750D2FE55154B2
:10162F000FF50E750F1A75100F7B2B7D0A7F0C129D
:10163F0027CD755001021757E4FFFE7DF07C4190D6
:10164F00009BE0F8A3E0F9A3E0FAA3E0FB1202F499
:10165F0060434041E4FFFE7DF07C41900097E0F84D
:10166F00A3E0F9A3E0FAA3E0FB1202F45027E5543C
:10167F0064017021750C1A750D2FE551540FF50E7D
:10168F00750F1A75100B7B2B7D0A7F0C1227CD75EA
:10169F005004021757E4FFFE7DF07C41900097E065
:1016AF00F8A3E0F9A3E0FAA3E0FB1202F4604040D4
:1016BF003EE4FFFE7DF07C4190009BE0F8A3E0F953
:1016CF00A3E0FAA3E0FB1202F45024E55470207556
:1016DF000C1A750D2FE551540FF50E750F1A751065
:1016EF00257B2B7D0A7F0C1227CD7550028059E484
:1016FF00FFFE7DF07C41900097E0F8A3E0F9A3E0B6
:10170F00FAA3E0FB1202F460444042E4FFFE7DF0D6
:10171F007C4190009BE0F8A3E0F9A3E0FAA3E0FB83
:10172F001202F45028E554B40123750C1A750D2FCD
:10173F00E551540FF50E750F1A75102B7B2B7D0A83
:0E174F007F0C1227CD755003AF5012002E22D2
:10270500C3E55364809484401CE552B40503E4F5A5
:10271500521225BD7F027E001206F9E552B401036F
:062725001215BF0552224F
:100E23007F011224288F08E55364036003020F60D7
:100E3300E50864016003020F60750C1AF50D750E69
:100E43001A750F1A75101A7B1A7D1A7F1A1227CD7D
:100E5300900072E0FEA3E0FF900071E02FFF90008E
:100E630070E03EFE7C007D0212051D900084EEF0D2
:100E7300FAA3EFF0FB900078E0FEA3E0FF90007789
:100E8300E02FFF900076E03EFE7C007D0212051D00
:100E9300900086EEF0A3EFF090007EE0FEA3E0FF6B
:100EA30090007DE02FFF90007CE03EFE7C007D0201
:100EB30012051D900088EEF0A3EFF0C3900075E0DB
:100EC3009BFF900074E09AFE1228E3AC06AD07EC9A
:100ED300120372A804A905AA06AB07E4FFFE7D7AF4
:100EE3007C441202579000B21206DB900086E0FEAB
:100EF300A3E0FFC390007BE09FFF90007AE09EFE9B
:100F03001228E3AC06AD07EC120372A804A905AAE4
:100F130006AB07E4FFFE7D7A7C441202579000B6CD
:100F23001206DB900088E0FEA3E0FFC3900081E09F
:100F33009FFF900080E09EFE1228E3AC06AD07EC15
:100F4300120372A804A905AA06AB07E4FFFE7D7A83
:100F53007C441202579000BA1206DB0553E5536432
:100F630002705CE50864017056750C01750D1A7505
:100F73000E1A750F1A75101A7B1A7D1A7F1A12270B
:100F8300CD1225BDE5387F00FEEF2536FFE5353E62
:100F9300900070F0A3EFF0E53C7F00FEEF253AFFF1
:100FA300E5393E900076F0A3EFF0E5407F00FEEFD9
:100FB300253EFFE53D3E900080F0A3EFF00553E5AD
:100FC300536401705CE50864017056750C02750D7D
:100FD3001A750E1A750F1A75101A7B1A7D1A7F1A55
:100FE3001227CD1225BDE5387F00FEEF2536FFE53C
:100FF300353E900072F0A3EFF0E5407F00FEEF2551
:101003003EFFE53D3E90007EF0A3EFF0E53C7F0020
:10101300FEEF253AFFE5393E90007AF0A3EFF005A5
:1010230053E553705CE50864017056750C03750D48
:101033001A750E1A750F1A75101A7B1A7D1A7F1AF4
:101043001227CD1225BDE5407F00FEEF253EFFE5CB
:101053003D3E90007CF0A3EFF0E53C7F00FEEF25E2
:101063003AFFE5393E900078F0A3EFF0E5387F00D2
:10107300FEEF2536FFE5353E900074F0A3EFF00553
:1010830053E4FF1224288F08E508B40104755401C2
:0910930022E508B40203E4F5545F
:01109C002231
:1019A80012282512000E7F981225F01227ED122713
:1019B800ADE4FF12293A7F2B1228657D07E4FF1258
:1019C8002903750C017F807E257D007C00121C9206
:1019D8007FF47E0112274DE4F5937594FFFF1227DB
:1019E8002BEF64E57039750C0A750D0A750E0A75CA
:1019F8000F0A7510017B0A7D0A7F0A1227CD7F2DF9
:101A080012272BEF6408702F750C1A750D1A750EB6
:101A18001A750F1A7510027B1A7D1A7F1A801575B0
:101A28000C0A750D0A750E0A750F0AE4F5107B0A83
:101A38007D0A7F0A1227CD750C0F750D28750E2BA0
:101A4800750F0E75101A7B0E7D0B7F1A1227CD129B
:101A580025BDE5387F00FEEF2536FFE5353E9000D1
:101A680084F0A3EFF0E53C7F00FEEF253AFFE5396F
:101A78003E900086F0A3EFF0E5407F00FEEF253EA4
:101A8800FFE53D3E900088F0A3EFF07BFF7A2779D1
:101A9800057F011220437BFF7A0E79237F041220F1
:101AA800437BFF7A2179AF7F071220431229401226
:041AB80024E680FBA5
:10142A004300A91E140A410095004100940041009E
:10143A009200410091004100960041009300420051
:10144A00840000420086000042008800004400B286
:10145A00000000004400B6000000004400BA00008A
:10146A0000004200D400004200D600004200D8002A
:10147A00004200A500004200A300004200A70000AD
:10148A0042008D000042008B000042008F000044A1
:10149A0000C1000000004400C5000000004400C96B
:1014AA000000000042006E0000420082000041007D
:1014BA008A004100D1004100D2004100D30041001E
:1014CA00CF004400970000000044009B0000000089
:1014DA0044009F000000004200AC00004200AE0041
:0614EA00004200B000000A
:10252400E5387F00FEEF2536FFE5353EFE9000845A
:10253400E0FCA3E0FDC3EF9DFFEE9CFEC36480942A
:10254400805007C3E49FFFE49EFE9000D4EEF0A306
:02255400EFF0A6
:012556002262
:10255700E53C7F00FEEF253AFFE5393EFE90008619
:10256700E0FCA3E0FDC3EF9DFFEE9CFEC3648094F7
:10257700805007C3E49FFFE49EFE9000D6EEF0A3D1
:02258700EFF073
:01258900222F
:10258A00E5407F00FEEF253EFFE53D3EFE900088D8
:10259A00E0FCA3E0FDC3EF9DFFEE9CFEC3648094C4
:1025AA00805007C3E49FFFE49EFE9000D8EEF0A39C
:0225BA00EFF040
:0125BC0022FC
:100B680090008BE0FCA3E0FDE4120372C004C00512
:100B7800C006C007900082E0FEA3E024A9F58274B5
:100B8800003EF583E0FCE4120377A804A905AA0651
:100B9800AB07D007D006D005D0041202579000B298
:100BA800E0F8A3E0F9A3E0FAA3E0FB12014E8F17E7
:100BB8008E168D158C1490008DE0FCA3E0FDE412D8
:100BC8000372C004C005C006C007900082E0FEA3FF
:100BD800E024A9F58274003EF583E0FCE412037773
:100BE800A804A905AA06AB07D007D006D005D004EB
:100BF8001202579000B6E0F8A3E0F9A3E0FAA3E0E8
:100C0800FB12014E8F138E128D118C1090008FE005
:100C1800FCA3E0FDE4120372C004C005C006C007CF
:100C2800900082E0FEA3E024A9F58274003EF583DB
:100C3800E0FCE4120377A804A905AA06AB07D007CD
:100C4800D006D005D0041202579000BAE0F8A3E00D
:100C5800F9A3E0FAA3E0FB12014E8F1B8E1A8D193F
:100C68008C18AF13AE12AD11AC10A804A905AA06D2
:100C7800AB0712014EC004C005C006C007AF17AECF
:100C880016AD15AC14A804A905AA06AB0712014EA7
:100C9800D003D002D001D00012005DC004C005C04E
:100CA80006C007AF1BAE1AAD19AC18A804A905AA4F
:100CB80006AB0712014ED003D002D001D0001200BB
:100CC8005D121D4BA804A905AA06AB07AF17AE16FF
:100CD800AD15AC1412025712230DE4FBFA793478DF
:100CE8004312014E7BDB7A0F794978401202579004
:100CF80000C11206DBAF13AE12AD11AC10A804A9E7
:100D080005AA06AB0712014EC004C005C006C007FD
:100D1800AF17AE16AD15AC14A804A905AA06AB0703
:100D280012014ED003D002D001D00012005DC004E1
:100D3800C005C006C007AF1BAE1AAD19AC18A80491
:100D4800A905AA06AB0712014ED003D002D001D0E4
:100D58000012005D121D4BA804A905AA06AB07AF37
:100D680013AE12AD11AC1012025712230DE4FBFAA8
:100D78007934784312014E7BDB7A0F794978401237
:100D880002579000C51206DBAF13AE12AD11AC10BE
:100D9800A804A905AA06AB0712014EC004C005C0E5
:100DA80006C007AF17AE16AD15AC14A804A905AA5E
:100DB80006AB0712014ED003D002D001D0001200BA
:100DC8005DC004C005C006C007AF1BAE1AAD19ACA4
:100DD80018A804A905AA06AB0712014ED003D00231
:100DE800D001D00012005D121D4BA804A905AA0667
:100DF800AB07AF1BAE1AAD19AC1812025712230D70
:100E0800E4FBFA7934784312014E7BDB7A0F794997
:0B0E180078401202579000C90206DB70
:1006F9008E088F0912252412255712258A9000D4B5
:10070900E0FEA3E0FF9000A4E02FF09000A3E03EFC
:10071900F09000D6E0FEA3E0FF9000A6E02FF09055
:1007290000A5E03EF09000D8E0FCA3E0FD9000A811
:10073900E02DF09000A7E03CF09000D4E0FAA3E0AF
:10074900FB90008CE02BF090008BE03AF090008E4B
:10075900E02FF090008DE03EF0900090E02DF090B9
:10076900008FE03CF090006FE004F0700690006E9E
:10077900E004F0900082E0FEA3E024A9F582740071
:100789003EF583E0F9FF90006EE07003A3E06F602F
:1007990003020B67E50945086003020857E9FB7A7C
:1007A900009000A3E0FEA3E0FFAD037C001204C8A3
:1007B9009000A3E4F0A3EFF0A3E0FEA3E0FFAD03F4
:1007C9007C001204C89000A5E4F0A3EFF090008229
:1007D900E0FEA3E024A9F58274003EF583E0FD7CE8
:1007E900009000A7E0FEA3E0FF1204C89000A7E470
:1007F900F0A3EFF09000A3E0FCA3E0FDECC4F854F3
:10080900F0C8EDC4540F489000BEF0ED540F9000AD
:10081900CDF09000A5E0FCA3E0FDECC4F854F0C8CD
:10082900EDC4540F489000BFF0ED540F9000CEF086
:100839009000A7E0FCA3E0FDECC4F854F0C8EDC4B7
:10084900540F489000C0F0ED540F9000D0F0E50926
:090859006401450860030209492D
:10086200120B68E4FFFE7D207C419000C1E0F8A3FA
:10087200E0F9A3E0FAA3E0FB12014E1203AB7C0005
:100882007D0A12051DC3745A9FF50BE49EF50AE416
:10089200FFFE7D207C419000C5E0F8A3E0F9A3E0D3
:1008A200FAA3E0FB12014E1203AB7C007D0A120593
:1008B2001DC3745A9FF50DE49EF50CE4FFFE7D20E6
:1008C2007C419000C9E0F8A3E0F9A3E0FAA3E0FBC1
:1008D20012014E1203AB7C007D0A12051DC3745A2D
:1008E2009FF50FE49EF50EAE0AAF0B7C007D0A1257
:1008F200051D900091EFF0AE0AAF0B7C007D0A124D
:10090200051D900094EDF0AE0CAF0D7C007D0A1237
:10091200051D900092EFF0AE0CAF0D7C007D0A1227
:10092200051D900095EDF0AE0EAF0F7C007D0A1212
:10093200051D900093EFF0AE0EAF0F7C007D0A1202
:07094200051D900096EDF089
:0B094900E509640245086003020B444E
:10095400900082E0FEA3E024A9F58274003EF583B2
:10096400E0FB7A009000A3E0FEA3E0FFAD037C006F
:100974001204C89000A3E4F0A3EFF0A3E0FEA3E008
:10098400FFAD037C001204C87E009000A5EEF0A326
:10099400EFF0FB900082E0FEA3E024A9F58274004E
:1009A4003EF583E0FD7C009000A7E0FEA3E0FF128B
:1009B40004C89000A7E4F0A3EFF09000A3E0FEA326
:1009C400E0FF9000ACEEF0A3EFF0A3EAF0A3EBF0AD
:1009D4009000A7E0FDA3E09000B0CDF0A3EDF0EE11
:1009E400C4F854F0C8EFC4540F489000BEF090000F
:1009F400A4E0540F9000CDF0EAC4F854F0C8EBC45E
:100A0400540F489000BFF09000A6E0540F9000CE21
:100A1400F09000A7E0FCA3E0FDECC4F854F0C8EDAE
:100A2400C4540F489000C0F0ED540F9000D0F01261
:100A34000B68E4FFFE7D207C419000C1E0F8A3E058
:100A4400F9A3E0FAA3E0FB12014E1203AB7C007D94
:100A54000A12051DC3745A9FF50BE49EF50AE4FFC0
:100A6400FE7D207C419000C5E0F8A3E0F9A3E0FA04
:100A7400A3E0FB12014E1203AB7C007D0A12051D9C
:100A8400C3745A9FF50DE49EF50CE4FFFE7D207CB3
:100A9400419000C9E0F8A3E0F9A3E0FAA3E0FB1257
:100AA400014E1203AB7C007D0A12051DC3745A9FCC
:100AB400F50FE49EF50EAC0AAD0BEC120372900038
:100AC400971206DBAC0CAD0DEC12037290009B1276
:100AD40006DBAC0EAD0FEC12037290009F1206DB26
:100AE400AE0AAF0B7C007D0A12051D900091EFF059
:100AF400AE0AAF0B7C007D0A12051D900094EDF048
:100B0400AE0CAF0D7C007D0A12051D900092EFF033
:100B1400AE0CAF0D7C007D0A12051D900095EDF022
:100B2400AE0EAF0F7C007D0A12051D900093EFF00E
:100B3400AE0EAF0F7C007D0A12051D900096EDF0FD
:100B4400E490006EF0A3F09000A3F0A3F0A3F0A350
:100B5400F0A3F0A3F090008BF0A3F0A3F0A3F0A314
:040B6400F0A3F022E8
:10274D00E4FDFCC3ED9FEC9E5015E4FBFA0BBB00C2
:0F275D00010AEB64794A70F50DBD00010C80E4B0
:01276C00224A
:05292E00007F0BDFFE3D
:012933002281
:0F287500D2A6D2A512292EC2A612292EC2A522A2
:0C28CB00C2A6D2A512292ED2A602292EE8
:0E289300A20F92A6D2A512292EC2A502292EAE
:0D004600D2A512292EA2A6C2A512292E2293
:05276D001228757FA693
:02277200AE07B0
:10277400E4FDEE25E0FE92A6D2A512292EC2A512F2
:09278400292E0DBD08EC020046EF
:10278D00E4FED2A6FDEE25E0FED2A512292EA2A6CC
:0F279D00E4334206C2A512292E0DBD08E8AF068F
:0127AC00220A
:10284000AC05AB0712276DAF03122772AF04122736
:04285000720228CB1D
:02272B00AC07F9
:10272D0012276DAF041227721228757FA712277218
:0F273D0012278DAE07D20F1228931228CBAF06AA
:01274C00226A
:1027ED007D0B7F311228407D0A7F2C1228407D08F9
:0C27FD007F2D1228407D807F2E02284096
:1025BD0012276D7F321227721228757FA71227728C
:1025CD00E4FC12278DEC25E02435F8760008A607EB
:1025DD00BC0504D20F8002C20F1228930CBC06E278
:0325ED000228CBF6
:0928FA008B88898C88898F8889FC
:1014F0005200E686860086860086860086860086FE
:0915000086008686004100DB092B
:03002B0002293473
:0629340053BCEFD211328A
:02126F00156206
:10127100201103021418C2119000DAE0B4090040F1
:10128100030213FA90128CF82828730212D3021267
:10129100A70212B90212E50212A70212B90212FC48
:1012A1000212A70212B9AFBDEFFEADBE7C00E42D64
:1012B100FFEC3E9000DC803CAFBDEFFEADBE7C009C
:1012C100E42DFFEC3E9000DEF0A3EFF0755B010230
:1012D1001400AFBDEFFEADBE7C00E42DFFEC3E90EF
:1012E10000E08010AFBDEFFEADBE7C00E42DFFEC51
:1012F1003E9000E2F0A3EFF0021400AFBDEFFEADAF
:10130100BE7C00E42DFFEC3E9000E4F0A3EFF090F2
:1013110000E4E0FEA3E07807CEC313CE13D8F9A80A
:1013210062F6C394065013A862E675F003A424E69E
:10133100F582E43400F583E014F09000DBE014F072
:1013410060030214007409F0A862E4F6A862E6FFE3
:10135100C394064003021400EF75F003A424E6F5DC
:1013610082E43400F583E0C39480502AE6FF75F0EF
:1013710003A424E7F582E43400F583E0D3948040AC
:1013810040EF75F003A424E8F582E43400F583749A
:1013910001F0F55C802BA862E6FF75F003A424E759
:1013A100F582E43400F583E0C394805014EF75F0C6
:1013B10003A424E8F582E43400F5837402F0755C3B
:1013C10001A862E6FF75F003A424E6F582E4340087
:1013D100F583E0FEEF75F003A424E7F582E4340021
:1013E100F583EEF0E675F003A424E6F582E434001B
:1013F100F5837486F00602134D9000DA74FFF090C5
:1014010000DAE0D39407400374FFF09000DAE004BF
:07141100F09028FA93F5BCEE
:0314180005622248
:0228A1001562BE
:0928A300A862A65CE4F55CE6FF06
:0328AC00056222A0
:0228AF001562B0
:0928B100A862A65BE4F55BE6FFFA
:0328BA0005622292
:1025F0008F9D75BC88439720D2AD90004574FFF045
:10260000A37412F0A3746FF0A374FFF0A37428F006
:10261000A374A1F0A374FFF0A37428F0A374AFF027
:012620002297
:070003007B017A0079DC2289
:10239E00C3EF64809480403BD3EF648094855033C8
:1023AE00EFFD3395E0FC9000E875F003ED1206E7C3
:1023BE00EC75F003A42583F583E0FE9000E875F03C
:1023CE0003ED1206E7EC75F003A42583F583E4F024
:0523DE00AF06227F03A1
:0123E30022D7
:0426DD00156215620B
:1026E10012290CA862A60608A607A862E6FE08E65B
:0F26F100FF4E600BEF24FFFFEE34FFFE122915A2
:052700000562056222E4
:1027AD0053B1EF43B210122946E4F5D975DA49D287
:1027BD00DE90003F74FFF0A37426F0A374DDF022C9
:0820C0008E088F098C0A8D0BBC
:1020C80012290CEF4E7066AF0BAE0A122915C3E544
:1020D80009940AE5089400404BE47B18FAF9F89053
:1020E80022691206BB1205F4C006C007AE08AF0984
:1020F800AB07AA06E4F9F8D007D0061205F4AB0737
:10210800AA06AFF9EFFEADE97C00E42DFFEC3ECF67
:102118002BCF3AAD07FCAF03AE02122854D2D843F6
:0F212800DA01800612294653DAFE7F02227F0376
:012137002285
:0C28D70012290CEF4E7002FF227F01223C
:101BA900E4F580900118E0FFB40800505F901BBD78
:101BB900F8282873021BD5021BDB021BE1021BE775
:101BC900021BED021BF7021C01021C0BC2A3C2A2DD
:101BD9008016C2A3C2A2801AC2A3C2A2801EC2A337
:101BE900C2A28022C2A3D2A2C2A1C2A08020C2A343
:101BF900D2A2C2A1D2A08016C2A3D2A2D2A1C2A04F
:101C0900800CC2A3D2A2D2A1D2A08002D2A3C3EFD8
:101C1900648094885029900118E0FF3395E0FE74A0
:101C29000F2FF58274013EF583E0FF3395E0FE74D2
:101C39006D2FF58274223EF583E493F580801E9022
:101C49000118E0FFB408133395E0FE740F2FF582F5
:101C590074013EF583E0F5808003E4F58090010E80
:101C6900E0FF900118E004FEF0D3EF6480F8EE6421
:101C790080984014E0D36480948850047408F0225A
:091C890090010DE0900118F02219
:10282500E4F5937594FF5395F043960F90002A7441
:0B283500FFF0A3741BF0A374A9F022B5
:0929030090010DEFF0A3EDF022AC
:1027CD0090010FEFF0A3EDF0A3EBF0A3E50CF0A358
:1027DD00E50DF0A3E50EF0A3E50FF0A3E510F02253
:06293A00900117EFF022EE
:1015090001610049011A9494009494009494004153
:0315190001191E97
:021885001562EA
:1018870020B20690011AE014F020B30690011DE083
:1018970014F0209706900120E014F0900119E0144D
:1018A700F060030219A5741EF0A862E4F6A862E6C8
:1018B700FFC36480948340030219A5EF3395E0FECC
:1018C70090011A75F003EF1206E7EE75F003A425F1
:1018D70083F583E0C39480503990011B75F003EFC3
:1018E7001206E7EE75F003A42583F583E0D3948011
:1018F700405AE6FF3395E0FE90011C75F003EF12A6
:1019070006E7EE75F003A42583F5837401F0F5610E
:10191700803AA862E6FF3395E0FE90011B75F0035D
:10192700EF1206E7EE75F003A42583F583E0C39471
:1019370080501990011C75F003EF1206E7EE75F061
:1019470003A42583F5837402F0756101A862E6FF9D
:10195700FD3395E0FC90011A75F003ED1206E7ECF4
:1019670075F003A42583F583E0FE90011B75F00352
:10197700ED1206E7EC75F003A42583F583EEF0EF8F
:101987003395E0FE90011A75F003EF1206E7EE7546
:0E199700F003A42583F5837494F0060218B4BF
:0319A500056222B6
:0228BD001562A2
:0928BF00A862A661E4F561E6FFE0
:0328C80005622284
:10000E0090003074FFF0A37428F0A374BDF090003C
:0D001E002D74FFF0A37418F0A37485F02278
:10242800EF600764016003BF0233EFFD3395E0FC02
:1024380090011C75F003ED1206E7EC75F003A42576
:1024480083F583E0FE90011C75F003ED1206E7ECBE
:0F24580075F003A42583F583E4F0AF06227F031C
:012467002252
:10151C004100000A4100290A41006D0A042900001B
:10152C000000012F004600670000FFFF8FFFC10D78
:10153C00C105C108C101C10E60240005FF000AFFEE
:10154C00000AFF000AFF000AFF000AFF000AFF0062
:10155C000AFF000AFF000AFF000AFF000AFF000A48
:10156C006036002AFF000AFF000AFF003EFF000A57
:10157C00FF003EFF000AFF003EFF000AFF000AFFCB
:10158C00000AFF003EFF003EFF003EFF003EFF0052
:0A159C000AFF000AFF000AFF000A20
:01000A0022D3
:03003E007F00221E
:10235700438E805389F07BE07A28790178009022B8
:10236700691206BB1223E4EFF404F58A7BE07A28AE
:10237700790178009022691206BB1223E4C3E49F17
:10238700FFE49EFE74019DFDE49CFC78081206A7FD
:072397008F8CD28CD2A92229
:03000B000222BB13
:0422BB00C0E0C0D0EF
:1022BF00D5230A75234C300D02052FD20DA20372C0
:1022CF000450361525E5257030852725D207300AAD
:1022DF0017E52860071528438F01801D538FFEC215
:1022EF00B5D53115C20A80110526E526D3940640CF
:0922FF0008C203E52E6002D206BC
:05230800D0D0D0E0324E
:10221600300E47C20E9022691206BB78101206A72E
:102226008E5D8F5E900003E0FEA3E0FFE4FCFD7B85
:1022360019FAF9F8120569C006C007AE5DAF5EABC4
:1022460007AA06E4F9F8D007D0061223E4780312A9
:1022560006A7900065EEF0A3EFF0900065E0FEA300
:02226600E0FF97
:012268002253
:09290C00900067E0FEA3E0FF2249
:09291500900067EEF0A3EFF02240
:1028540090006BEEF0A3EFF0900069ECF0A3EDF0C4
:012864002251
:03294600C2B422F6
:03003B00021DF1B2
:101DF100C0E0C083C082C0D075D000C004C005C09F
:031E010006C00711
:101E040030DF04C2DF807D30DA04C2DA807630D974
:101E14003DC2D9AFFBEFFEADEB7C00E42DFFEC3E01
:101E240020000E900001F0A3EFF075DB11D20080CA
:101E340053FE900001E0FCA3E0FDC3EF9DFFEE9C88
:101E4400A3F0A3EFF075DB00C200D20E803630D8C9
:101E540033C2D8900067E07002A3E06022B2B4906D
:101E64000069E0FEA3E0F5EAEEF5FAA3E0FEA3E0E4
:101E7400FF90006AE02FF0900069E03EF08005C218
:041E8400B453DAFE7B
:101E8800D007D006D005D004D0D0D082D083D0E0FF
:011E98003217
:06294000122357D2AF2262
:101FB8003004047F0180027F00200A047E01800231
:101FC8007E00EE5F6074E530C395245068300236B9
:101FD800752801E530131313541FAB32AA33A93403
:101FE800F582758300120479FFE530540704FEEF8B
:101FF800A806088002C333D8FC30D70575310380A2
:102008002F753101802AAB32AA33A93475F002E565
:1020180030A4F58285F083120479F528E53075F04F
:1020280002A429F9EA35F0FA900001120479F53191
:0A2038000530D20A22C204438F10C3
:01204200227B
:101ABC00900000E014F0701F740AF0D20590002919
:101ACC00E014F07012740AF0D20890006DE014F07B
:101ADC007005740AF0D20190002AA3E0FAA3E0F991
:101AEC001206F390002DA3E0FAA3E0F91206F3908E
:101AFC000039A3E0FAA3E0F91206F3900045A3E045
:101B0C00FAA3E0F91206F3900054A3E0FAA3E0F96B
:101B1C001206F390005DA3E0FAA3E0F91206F3902D
:101B2C00004BA3E0FAA3E0F91206F3EF600C90006F
:101B3C001DA3E0FAA3E0F91206F390004EA3E0FA1D
:101B4C00A3E0F91206F3EF600E900020A3E0FAA3D5
:101B5C00E0F91206F3D20BE52DD394004016D52DE7
:101B6C003030090C900023A3E0FAA3E0F91206F33D
:101B7C00D20C801D900051A3E0FAA3E0F91206F3F9
:101B8C00EF600E900023A3E0FAA3E0F91206F3D263
:0D1B9C000C900005A3E0FAA3E0F90206F3A7
:101E990090003FA3E0FAA3E0F91206F3900042A3F1
:101EA900E0FAA3E0F91206F3900033A3E0FAA3E005
:101EB900F91206F3900008A3E0FAA3E0F91206F379
:101EC900900030A3E0FAA3E0F91206F3EF600C905A
:101ED9000011A3E0FAA3E0F91206F3900036A3E09B
:101EE900FAA3E0F91206F3EF600C900017A3E0FAE9
:101EF900A3E0F91206F3900048A3E0FAA3E0F9126F
:101F090006F3EF600C90001AA3E0FAA3E0F91206B9
:101F1900F330060EC206900026A3E0FAA3E0F912F8
:031F290006F3229A
:1024680090000BA3E0FAA3E0F91206F390003CA356
:10247800E0FAA3E0F91206F3EF600C900014A3E071
:10248800FAA3E0F91206F3900057A3E0FAA3E0F9E3
:0F2498001206F390005AA3E0FAA3E0F90206F34C
:1026B200AF2CAE2BAD2AAC299000601206DB900045
:1026C20064E52FF0E4F52CF52BF52AF529F52F908A
:0B26D200000EA3E0FAA3E0F90206F3FB
:1024E600300705C207121FB8300D05C20D121ABCFF
:1024F600300505C205121E99300805C20812246867
:10250600300105C2011226B2E52C2401F52CE43572
:0E2516002BF52BE4352AF52AE43529F5292288
:102043008B088A09890AEFB40C005070902056F867
:1020530028287302207A02207F022084022089022A
:10206300208E02209302209802209D0220A20220AB
:10207300A70220AC0220B1900005803590000880B3
:102083003090000B802B90000E8026900011802151
:10209300900017801C900014801790001A801290F3
:1020A300001D800D90002080089000238003900085
:0D20B30026E508F0A3E509F0A3E50AF022F8
:072927007B017A00796022B8
:1028650053B1DF43B220C2B5C20A8F27438F10226E
:030053000221384F
:10213800C0E0C083C082C0D075D000C000C001C05C
:0321480002C003CF
:10214B00200313D203755608752E00755500E5272D
:10215B00C313F525803AE526C394014031E5552597
:10216B00E0F555E526C3940340020555D55621E508
:10217B002EC39557501A755608AB58AA59A95A85AC
:10218B002E82758300E5551204A6052E8002C2032C
:03219B00752600A6
:10219E00D003D002D001D000D0D0D082D083D0E0F6
:0121AE0032FE
:09291E008B588A59895A8D572201
:03294900AF2E228C
:102621002003047F0180027F00200A047E018002D2
:102631007E00EE5F60188B328A338934EDC313F567
:1026410024C202E4F530538FEFD2047F02227F03CC
:012651002266
:1024A7002003047F0180027F00200A047E0180024E
:1024B7007E00EE5F6026538FEF752810753108D2C6
:1024C7000A438F018B328A338934ED75F008A404EF
:0F24D700F524D202E4F530D2047F02227F0322E3
:102809002003047F0180027F00200A047E018002E8
:0C2819007E00EE5F60037F00227F012242
:1015A6005500F800000000000000000000000000E8
:0815B60000000100000000002C
:0300430002109D0B
:10109D00C0E0C0F0C083C082C0D075D000C000C019
:1010AD0001C002C003C004C005C006C007E59A30E8
:1010BD00E142539AFD9000FDE0FEA3E0FFC39000D6
:1010CD00FCE09F9000FBE09E501F9000F8E0FBA31A
:1010DD00E0FAA3E0F9A3E475F00112055385F0825F
:1010ED00F583120479F59B800B9000FFE4F0E56029
:1010FD006002C2B7E59A20E003021254539AFE3003
:10110D000C0BC20C900105E4F0A3F0D209E560646C
:10111D000260030211AE900103E0FEA3E0FFA3E025
:10112D00FCA3E0FDC39FEC9E5071900100E0FBA37A
:10113D00E0FAA3E0F98D828C83E59B1204A6900161
:10114D000BE0FEA3E0FFC3ED9FEC9E50409001032A
:10115D00E0FCA3E0FDEF9DEE9C5032900108E0FB1A
:10116D00A3E0FAA3E0F9900105E0FEA3E0FFF5820C
:10117D008E83120479FD900100E0FBA3E0FAA3E059
:10118D00F98F828E831204796D6002C20990010677
:10119D00E004F07006900105E004F0855F2D021269
:1011AD0054900103E0FEA3E0FFA3E0FCA3E0FDC328
:1011BD009FEC9E5077900100E0FBA3E0FAA3E0F9CD
:1011CD008D828C83E59B1204A690010BE0FEA3E0BB
:1011DD00FFC3ED9FEC9E5046900103E0FCA3E0FDA4
:1011ED00EF9DEE9C5038900108E0FBA3E0FAA3E0E0
:1011FD00F9900105E0FEA3E0FFF5828E83120479DC
:10120D00FD900100E0FBA3E0FAA3E0F98F828E834D
:10121D001204796D600890010574FFF0A3F0900140
:10122D0006E004F07006900105E004F0900103E083
:10123D00FEA3E0FFC3900106E09F900105E09E40F4
:10124D00069001077401F0D007D006D005D004D068
:10125D0003D002D001D000D0D0D082D083D0F0D036
:02126D00E0326D
:022884001562DB
:0A288600900107E0A862F6FFE4F0FD
:03289000056222BC
:01004100229C
:101C92008F0B8E0A8D098C08850C60E560700280BE
:101CA2000343BA01E560701790005D74FFF0A374FE
:101CB20000F0A37441F0E4F5DBD290D2918020C20F
:101CC200B7AB0BAA0AA909A808E47F407E9CFDFCD9
:101CD2001205F48F5FE55F7003755F01855F2D75F7
:101CE2009A10E47B04FAF9F89022691206BB1205F5
:101CF200F4AB0BAA0AA909A8081205F4EFF404F53B
:101D0200D7E47B04FAF9F89022691206BB1205F4B3
:101D1200AB0BAA0AA909A8081205F4C3E49FFFE4C1
:101D22009EFE74019DFDE49CFC78081206948FD6F9
:101D3200438E1443AF0190005174FFF0A37428F056
:051D4200A37484F022EF
:10265200900100EBF0A3EAF0A3E9F0A3ECF0A3ED04
:10266200F090010BE54DF0A3E54EF0900108E54A2C
:10267200F0A3E54BF0A3E54CF0D20CE4900107F097
:012682002235
:102683009000FFE070269000F8EBF0A3EAF0A3E9D6
:10269300F0E4A3F0A3F0A3ECF0A3EDF0A37401F036
:0F26A300E5606002D2B7439A027F02227F0322D2
:0B28EF009000FFE07002FF227F01223A
:10005600020417E86480F8E933E83360110460F0BD
:10006600ED33EC337009E8FCE9FDEAFEEBFF220410
:1000760060DED3EB9FEA9EE99DE8C2E78CF0C2F70B
:1000860095F0400CE8CCF8E9CDF9EACEFAEBCFFBD7
:100096001203E285D0F05804700320D5B3E804704B
:1000A600075002B2D502042192D5EC0460F7E4CCE5
:1000B600C0E0C398F8603B94186008400DD0E0FBA0
:1000C6000203F9E4FBFAC9FC8028E830E406E4C937
:1000D600FBE4CAFCE830E305E4C9CACBFCE85407F4
:1000E6006010F8C3E913F9EA13FAEB13FBEC13FCFF
:1000F600D8F130F52FC3E49CFCEF9BFFEE9AFEEDA2
:1001060099FDD0E0FBEF4E4D4C701222DB0302044A
:100116001EEC2CFCEF33FFEE33FEED33FDED30E746
:10012600EB0203F9EF2BFFEE3AFEED39FDD0E0FBD3
:1001360050130BBB0003020421ED13FDEE13FEEF7B
:0801460013FFEC13FC0203F9A6
:10014E00EC4D6011E8497017ED33EC3304600DE4AB
:10015E00FCFFFEFD22E933E8330470F802041712A7
:10016E0003E258046009E4CC2481500628500902A9
:10017E00042128400302041EC0E0EB4A7044B980FB
:10018E0006D0E0FB02040DEF4E701CBD8008EBFFA5
:10019E00EAFEE9FD80EBE98DF0A4FEE5F002023700
:1001AE00E9CDF9EAFEEBFFEF89F0A4FCE5F0CE898C
:1001BE00F0A42EFFE435F0CD89F0A42DFEE435F049
:1001CE008067EF4E7005BD80D780C3EF8BF0A4AC77
:1001DE00F0EE8BF0A42CFCE435F0F8EF8AF0A42CB2
:1001EE00E5F038FCE433CB8DF0A42CFCE5F03BF8C5
:1001FE00EE8AF0A42CFCE5F038F8E433CF89F0A4B5
:10020E002CFCE5F038CF3400CE89F0A42FFFE5F0BA
:10021E003EFEE433C98DF0A42EFEE5F039CD8AF012
:10022E00A42FFFE5F03EFEE43DFD33D0E0FB50078A
:10023E000BBB000F020421EC2CFCEF33FFEE33FE60
:06024E00ED33FD0203F98F
:10025400020421EC5D046005E859047003020417EC
:100264001203E2580460F6EC4860F2EC7004FDFE00
:10027400FF22C860DB2481C85009C398600250067D
:1002840002041E9850CAF582E9294B4A7005AB82D4
:1002940002040D75F0007C1A7880C3EF9BEE9AED92
:1002A40099400DC3EF9BFFEE9AFEED99FDE842F0F5
:1002B400DC23ACF0D0E0FFD0E0FED0E0FDAB822048
:1002C400E7101BEB60BAEC2CFCEF33FFEE33FEEDD2
:1002D40033FD0203F9E803F830E705C0F075F000D8
:1002E400EF2FFFEE33FEED33FD40B830E7C280AAB6
:1002F40074F8CC6480CCC86480C8F58204604FC3B1
:10030400EB9FF5F0EA9E42F0E99D42F0E89C45F04F
:10031400603C501DE5825FFFE582D313CB5BCBF4D9
:100324002B5582FB50280ABA002409B90020088002
:100334001DE5825BFBE582D313CF5FCFF4C3132F9C
:100344005582FF50090EBE00050DBD00010CC3EB24
:100354009FF5F0EA9E42F0E99D42F0E89C45F0608A
:0903640007CC4820E701B3EC22AC
:10036D0075F020800E75F010800575F0087D007E0B
:10037D00007F003392D530D503120686EC33401042
:10038D00EF33FFEE33FEED33FDEC33FCD5F0ED2214
:0E039D00E5F0247EA2D513CC92E7CDCEFF2250
:1003AB00EDD2E7CD33EC3392D524814006E4FFFE4A
:1003BB00FDFC22FCE4CFCECDCC24E0501174FF80A9
:1003CB00EDC3CC13CCCD13CDCE13CECF13CF047046
:0703DB00F030D5DE020686BA
:101D470002041722EDA2E7D2E7F9EC3340F260F381
:101D5700B4FF08ED547F70E8020421F82481C2E043
:101D6700C0E0F40428FAC313FCED92E7FD8C1C8D48
:101D77001D8E1E8F1FEEA2E7E9BA7F02C313340040
:101D87009400FA75F091A4E5F013F494FE8AF0A498
:101D970033E5F033248CD313FDE492E7FE7F007C18
:101DA7003F758302ECC0E0F8EDC0E0F9EEC0E0FA61
:101DB700EFC0E0FBAC1CAD1DAE1EAF1F120257D02B
:101DC700E0FBD0E0FAD0E0F9D0E0F812005DED6476
:101DD70080FD30E7011CD583CBED33CC33F8D0E061
:0A1DE700A2E71328C313CC13FD225A
:10230D00ECC0E0F8EDC0E0F9EEC0E0FAEFC0E0FBA4
:10231D0012014EEC6480FC7B007A007980783F12CC
:10232D00005D121D4BD0E0FBD0E0FAD0E0F9D0E01B
:10233D00F8C0E012025712177DD0E030E70B78405D
:0A234D0079497A0F7BD912005D2256
:1003E200E9D2E7C933E833F892D5EDD2E7CD33EC61
:0703F20033FC5002B2D522DA
:1003F900EC30E7100FBF000C0EBE00080DBD000465
:100409000BEB6014A2D5EB13FCED92E7FD2274FF10
:10041900FCFDFEFF22E480F8A2D574FF13FC7D8069
:03042900E480EF7D
:10175D00BE1249253E4CCCCDBEAAAAAB3F8000009F
:10176D003E7ADBB03EED63383F24BC7D3F490FDB55
:10177D00ED33ECC2E7CC33920FB4FF13ED547F6021
:10178D00030204177FDB7E0F7DC97C3F021878C2F0
:10179D0010C3947F401E7007EDD2E794904015EF73
:1017AD00FBEEFAEDF9ECF87F007E007D807C3F12B8
:1017BD000257D210ED33EC33248430E705E4C0E05A
:1017CD00806D04FAEDD2E754F0C333DAFD540734DB
:1017DD00002323C0E0CCC0E0F8EDC0E0F9EEC0E09E
:1017ED00FAEFC0E0FBE4120377EC24FEFC8C1C8DB9
:1017FD001D8E1E8F1F12014E7B007A007980783F5F
:10180D0012005DECC51CB2E7FCEDC51DFDEEC51E5D
:10181D00FEEFC51FFFD0E0FBD0E0FAD0E0F9D0E03D
:10182D00F812005DA81CA91DAA1EAB1F1202578C31
:10183D001C8D1D8E1E8F1F90175D740312042CA816
:10184D001CA91DAA1EAB1F12014ED0E0600F24690A
:10185D00F582E43417F5831206CB12005D30100BC0
:10186D007BDB7A0F79C978BF12005DED33EC336005
:08187D0006ECA20F92E7FC2229
:10042C00C0E0EFFBEEFAEDF9ECF812014ED0E0F57E
:10043C00F0EFFBEEFAEDF9ECF81206BBA3A3A3A3C5
:10044C00E8C0E0E9C0E0EAC0E0EBC0E0C0F01201B7
:10045C004E1206CBA3A3A3A312005DD0F0D0E0FBF9
:0D046C00D0E0FAD0E0F9D0E0F8D5F0D422CD
:101F38000219A8E493A3F8E493A34003F68001F2FE
:101F480008DFF48029E493A3F85407240CC8C333AA
:101F5800C4540F4420C8834004F456800146F6DF79
:101F6800E4800B010204081020408090141BE47EDA
:101F7800019360BCA3FF543F30E509541FFEE4936E
:101F8800A360010ECF54C025E060A840B8E493A335
:101F9800FAE493A3F8E493A3C8C582C8CAC583CA60
:101FA800F0A3C8C582C8CAC583CADFE9DEE780BE18
:0115BE00002C
:10047900BB010CE58229F582E5833AF583E0225038
:1004890006E92582F8E622BBFE06E92582F8E22282
:0D049900E58229F582E5833AF583E493229C
:1004A600F8BB010DE58229F582E5833AF583E8F08C
:1004B600225006E92582C8F622BBFE05E92582C838
:0204C600F22220
:1004C800BC000BBE0029EF8DF084FFADF022E4CC18
:1004D800F875F008EF2FFFEE33FEEC33FCEE9DECE1
:1004E800984005FCEE9DFE0FD5F0E9E4CEFD22ED27
:1004F800F8F5F0EE8420D21CFEADF075F008EF2F71
:10050800FFED33FD4007985006D5F0F222C398FD61
:050518000FD5F0EA22FE
:10051D00C2D5EC30E709B2D5E4C39DFDE49CFCEEF9
:10052D0030E715B2D5E4C39FFFE49EFE1204C8C3A5
:10053D00E49DFDE49CFC80031204C830D507C3E4A0
:06054D009FFFE49EFE2268
:10055300A3F8E0C5F025F0F0E5821582700215835B
:06056300E0C838F0E822B8
:10056900E88FF0A4CC8BF0A42CFCE98EF0A42CFC31
:100579008AF0EDA42CFCEA8EF0A4CDA8F08BF0A4AF
:100589002DCC3825F0FDE98FF0A42CCD35F0FCEB0E
:100599008EF0A4FEA9F0EB8FF0A4CFC5F02ECD39D3
:0F05A900FEE43CFCEAA42DCE35F0FDE43CFC2240
:1005B80075F008758200EF2FFFEE33FECD33CDCCFA
:1005C80033CCC58233C5829BED9AEC99E58298407D
:1005D8000CF582EE9BFEED9AFDEC99FC0FD5F0D65A
:1005E800E4CEFBE4CDFAE4CCF9A88222B800C1B984
:1005F8000059BA002DEC8BF084CFCECDFCE5F0CBC2
:10060800F97818EF2FFFEE33FEED33FDEC33FCEBFA
:1006180033FB10D703994004EB99FB0FD8E5E4F9B5
:10062800FA227818EF2FFFEE33FEED33FDEC33FCA2
:10063800C933C910D7059BE99A4007EC9BFCE99A96
:10064800F90FD8E0E4C9FAE4CCFB2275F010EF2FDB
:10065800FFEE33FEED33FDCC33CCC833C810D707DB
:100668009BEC9AE899400AED9BFDEC9AFCE899F816
:0E0678000FD5F0DAE4CDFBE4CCFAE4C8F922A9
:1023E400C2D5E830E70FB2D5E4C39BFBE49AFAE424
:1023F40099F9E498F8EC30E717B2D512241A1205CB
:10240400F4E4C39BFBE49AFAE499F9E498F88003B2
:102414001205F430D50DE4C39FFFE49EFEE49DFD58
:04242400E49CFC2216
:0E068600C3E49FFFE49EFEE49DFDE49CFC2285
:10069400E8600FECC313FCED13FDEE13FEEF13FF44
:0306A400D8F12268
:1006A700E86010ECA2E713FCED13FDEE13FEEF1369
:0406B700FFD8F02256
:1006BB00E493FC740193FD740293FE740393FF2285
:1006CB00E493F8740193F9740293FA740393FB2285
:0C06DB00ECF0A3EDF0A3EEF0A3EFF02292
:0C06E700A42582F582E5F03583F583221E
:0606F3008A838982E47392
:0C28E300EE30E707C3E49FFFE49EFE22F6
:00000001FF
