:100F0A0000A8C0003F065B4F666D7D077F6F000833
:100F1A0040014148BF86DBCFE6EDFD87FFEF76381B
:0806E900021C0009021A000CBA
:100DF40075250C75260C75270C75280C7529017B37
:100E04000C7D0C7F0C120F2A7B017A00798FAD1DAB
:100E1400AC1C120EE27B017A00798FAD1DAC1C0272
:020E24000E8836
:10000E007F01120FB47B017A007971AD1BAC1A021D
:02001E000EE2F0
:100909007F807E257D007C00120BD0E4F5267F8058
:100919007E25FDFC1207AC120F4AE4FF120FB47DCD
:1009290007E4FF120F9975250C75260C75270C75B0
:10093900280C75290C7B0C7D0C7F0C120F2A90005A
:100949006EE0FBA3E0FAA3E08B278A28F529E4F5FA
:100959002AF52B7B017A00798FAD1DAC1C120E573D
:100969007BFF7A0D79F47F09120B5390006EE0FB3F
:10097900A3E0FAA3E08B278A28F529E4F52AF52BC9
:100989007B017A007971AD1BAC1A120E267BFF7AB6
:1009990000790E7F0A120B53120FBA120DB680FBA3
:10060000E4F5809000E2E0FFB40800505F9006142B
:10061000F828287302062C02063202063802063E2B
:1006200002064402064E020658020662C2A3C2A295
:100630008016C2A3C2A2801AC2A3C2A2801EC2A3F5
:10064000C2A28022C2A3D2A2C2A1C2A08020C2A301
:10065000D2A2C2A1D2A08016C2A3D2A2D2A1C2A00D
:10066000800CC2A3D2A2D2A1D2A08002D2A3C3EF97
:100670006480948850299000E2E0FF3395E0FE7496
:10068000D92FF58274003EF583E0FF3395E0FE74C8
:100690000E2FF582740F3EF583E493F580801E9053
:1006A00000E2E0FFB408133395E0FE74D92FF58221
:1006B00074003EF583E0F5808003E4F5809000D877
:1006C000E0FF9000E2E004FEF0D3EF6480F8EE6417
:1006D00080984014E0D36480948850047408F02219
:0906E0009000D7E09000E2F02246
:100F4A00E4F5937594FF5395F043960F90002A7435
:0B0F5A00FFF0A37406F0A37400F02267
:090F99009000D7EFF0A3EDF02267
:100F2A009000D9EFF0A3EDF0A3EBF0A3E525F0A331
:100F3A00E526F0A3E527F0A3E528F0A3E529F022AA
:060FB4009000E1EFF022C5
:1006F1004100000A4100290A41006D0A040E000070
:1007010000000114004600670000FFFF8FFFC10DCC
:10071100C105C108C101C10E60240005FF000AFF27
:10072100000AFF000AFF000AFF000AFF000AFF009B
:100731000AFF000AFF000AFF000AFF000AFF000A81
:100741006036002AFF000AFF000AFF0020FF000AAE
:10075100FF0020FF000AFF0020FF000AFF000AFF40
:10076100000AFF0020FF0020FF0020FF0020FF0003
:0A0771000AFF000AFF000AFF000A59
:01000A0022D3
:030020007F00223C
:100CEC00438E805389F07BE07A2879017800900F4D
:100CFC000A1203C1120D33EFF404F58A7BE07A2853
:100D0C0079017800900F0A1203C1120D33C3E49FCE
:100D1C00FFE49EFE74019DFDE49CFC78081203AD7B
:070D2C008F8CD28CD2A922AA
:03000B00020C9A4A
:040C9A00C0E0C0D026
:100C9E00D5080A75084C300D020514D20DA2037248
:100CAE00045036150AE50A7030850C0AD207300A50
:100CBE0017E50D6007150D438F01801D538FFEC282
:100CCE00B5D51615C20A8011050BE50BD394064057
:090CDE0008C203E5136002D2060E
:050CE700D0D0D0E03286
:100C4700300E47C20E900F0A1203C178101203AD7F
:100C57008E1E8F1F900003E0FEA3E0FFE4FCFD7BE8
:100C670019FAF9F812027DC006C007AE1EAF1FAB16
:100C770007AA06E4F9F8D007D006120D3378031255
:100C870003AD900065EEF0A3EFF0900065E0FEA3E2
:020C9700E0FF7C
:010C99002238
:090FA200900067E0FEA3E0FF22CD
:090FAB00900067EEF0A3EFF022C4
:1000260090006BEEF0A3EFF0900069ECF0A3EDF01A
:0100360022A7
:03003700C2B4222E
:03003B0002086157
:10086100C0E0C083C082C0D075D000C004C005C044
:0308710006C007B7
:1008740030DF04C2DF807D30DA04C2DA807630D91A
:100884003DC2D9AFFBEFFEADEB7C00E42DFFEC3EA7
:1008940020000E900001F0A3EFF075DB11D2008070
:1008A40053FE900001E0FCA3E0FDC3EF9DFFEE9C2E
:1008B400A3F0A3EFF075DB00C200D20E803630D86F
:1008C40033C2D8900067E07002A3E06022B2B49013
:1008D4000069E0FEA3E0F5EAEEF5FAA3E0FEA3E08A
:1008E400FF90006AE02FF0900069E03EF08005C2BE
:0408F400B453DAFE21
:1008F800D007D006D005D004D0D0D082D083D0E0A5
:0109080032BC
:060FBA00120CECD2AF2284
:100AC8003004047F0180027F00200A047E01800236
:100AD8007E00EE5F6074E515C395095068300236F4
:100AE800750D01E515131313541FAB17AA18A9198F
:100AF800F582758300120218FFE515540704FEEF0E
:100B0800A806088002C333D8FC30D70575160380C1
:100B18002F751601802AAB17AA18A91975F002E5D6
:100B280015A4F58285F083120218F50DE51575F008
:100B380002A429F9EA35F0FA900001120218F51614
:0A0B48000515D20A22C204438F10E3
:010B52002280
:10051300900000E014F0701F740AF0D205900029D7
:10052300E014F07012740AF0D20890006DE014F039
:100533007005740AF0D20190002AA3E0FAA3E0F94F
:100543001203DD90002DA3E0FAA3E0F91203DD907E
:100553000039A3E0FAA3E0F91203DD900045A3E01C
:10056300FAA3E0F91203DD900054A3E0FAA3E0F943
:100573001203DD90005DA3E0FAA3E0F91203DD901E
:10058300004BA3E0FAA3E0F91203DDEF600C900047
:100593001DA3E0FAA3E0F91203DD90004EA3E0FAF5
:1005A300A3E0F91203DDEF600E900020A3E0FAA3AD
:1005B300E0F91203DDD20BE512D394004016D512F5
:1005C3003030090C900023A3E0FAA3E0F91203DD15
:1005D300D20C801D900051A3E0FAA3E0F91203DDD1
:1005E300EF600E900023A3E0FAA3E0F91203DDD23B
:0D05F3000C900005A3E0FAA3E0F90203DD7F
:1009A90090003FA3E0FAA3E0F91203DD900042A30F
:1009B900E0FAA3E0F91203DD900033A3E0FAA3E023
:1009C900F91203DD900008A3E0FAA3E0F91203DDB0
:1009D900900030A3E0FAA3E0F91203DDEF600C9078
:1009E9000011A3E0FAA3E0F91203DD900036A3E0B9
:1009F900FAA3E0F91203DDEF600C900017A3E0FA07
:100A0900A3E0F91203DD900048A3E0FAA3E0F9128C
:100A190003DDEF600C90001AA3E0FAA3E0F91203DA
:100A2900DD30060EC206900026A3E0FAA3E0F91213
:030A390003DD22B8
:100D770090000BA3E0FAA3E0F91203DD90003CA377
:100D8700E0FAA3E0F91203DDEF600C900014A3E092
:100D9700FAA3E0F91203DD900057A3E0FAA3E0F904
:0F0DA7001203DD90005AA3E0FAA3E0F90203DD86
:100EB700AF11AE10AD0FAC0E9000601203D19000D1
:100EC70064E514F0E4F511F510F50FF50EF514903F
:0B0ED700000EA3E0FAA3E0F90203DD27
:100DB600300705C207120AC8300D05C20D12051309
:100DC600300505C2051209A9300805C208120D77BB
:100DD600300105C201120EB7E5112401F511E43503
:0E0DE60010F510E4350FF50FE4350EF50E2272
:100B53008B228A238924EFB40C005070900B66F823
:100B6300282873020B8A020B8F020B94020B990243
:100B73000B9E020BA3020BA8020BAD020BB2020BDE
:100B8300B7020BBC020BC1900005803590000880B2
:100B93003090000B802B90000E8026900011802156
:100BA300900017801C900014801790001A801290F8
:100BB300001D800D9000208008900023800390008A
:0D0BC30026E522F0A3E523F0A3E524F022AF
:070003007B017A0079602205
:10077B005500AD000000000000000000000000006C
:08078B00000001000000000065
:0300430002004672
:10004600C0E0C0F0C083C082C0D075D000C000C080
:1000560001C002C003C004C005C006C007E59A304F
:10006600E142539AFD9000B2E0FEA3E0FFC3900088
:10007600B1E09F9000B0E09E501F9000ADE0FBA362
:10008600E0FAA3E0F9A3E475F00112026785F082B5
:10009600F583120218F59B800B9000B4E4F0E52D71
:1000A6006002C2B7E59A20E0030201FD539AFE30D2
:1000B6000C0BC20C9000BAE4F0A3F0D209E52D6453
:1000C6000260030201579000B8E0FEA3E0FFA3E040
:1000D600FCA3E0FDC39FEC9E50719000B5E0FBA32E
:1000E600E0FAA3E0F98D828C83E59B12024590002D
:1000F600C0E0FEA3E0FFC3ED9FEC9E50409000B829
:10010600E0FCA3E0FDEF9DEE9C50329000BDE0FBCD
:10011600A3E0FAA3E0F99000BAE0FEA3E0FFF582BF
:100126008E83120218FD9000B5E0FBA3E0FAA3E06F
:10013600F98F828E831202186D6002C2099000BB8D
:10014600E004F070069000BAE004F0852C1202017B
:10015600FD9000B8E0FEA3E0FFA3E0FCA3E0FDC332
:100166009FEC9E50779000B5E0FBA3E0FAA3E0F980
:100176008D828C83E59B1202459000C0E0FEA3E0D1
:10018600FFC3ED9FEC9E50469000B8E0FCA3E0FD57
:10019600EF9DEE9C50389000BDE0FBA3E0FAA3E093
:1001A600F99000BAE0FEA3E0FFF5828E83120218F2
:1001B600FD9000B5E0FBA3E0FAA3E0F98F828E8301
:1001C6001202186D60089000BA74FFF0A3F0900058
:1001D600BBE004F070069000BAE004F09000B8E0CE
:1001E600FEA3E0FFC39000BBE09F9000BAE09E40F4
:1001F600069000BC7401F0D007D006D005D004D01C
:1002060003D002D001D000D0D0D082D083D0F0D09D
:02021600E032D4
:020F6500152E47
:0A0F67009000BCE0A82EF6FFE4F0B5
:030F7100052E2228
:01003A0022A3
:1007AC008F258E248D238C2285262DE52D7002809D
:1007BC000343BA01E52D701790005D74FFF0A3742C
:1007CC0000F0A3743AF0E4F5DBD290D2918020C211
:1007DC00B7AB25AA24A923A822E47F407E9CFDFC6C
:1007EC001203088F2CE52C7003752C01852C1275C7
:1007FC009A10E47B04FAF9F8900F0A1203C1120361
:10080C0008AB25AA24A923A822120308EFF404F5A7
:10081C00D7E47B04FAF9F8900F0A1203C11203080B
:10082C00AB25AA24A923A822120308C3E49FFFE442
:10083C009EFE74019DFDE49CFC780812039A8FD6F1
:10084C00438E1443AF0190005174FFF0A3740FF06A
:05085C00A37465F02209
:100E26009000B5EBF0A3EAF0A3E9F0A3ECF0A3ED94
:100E3600F09000C0E52AF0A3E52BF09000BDE52771
:100E4600F0A3E528F0A3E529F0D20CE49000BCF06D
:010E56002279
:100E88009000B4E070269000ADEBF0A3EAF0A3E97F
:100E9800F0E4A3F0A3F0A3ECF0A3EDF0A37401F049
:0F0EA800E52D6002D2B7439A027F02227F032218
:0B0F83009000B4E07002FF227F01220A
:100793005500C2000000000000000000000000003F
:0807A30000000100000000004D
:030023000203E3F2
:1003E300C0E0C0F0C083C082C0D075D000C000C0E0
:1003F30001C002C003C004C005C006C00730993B5A
:10040300C2999000C7E0FEA3E0FFC39000C6E09F3F
:100413009000C5E09E501F9000C2E0FBA3E0FAA34A
:10042300E0F9A3E475F00112026785F082F5831207
:100433000218F59980059000C9E4F020980302049E
:10044300F8C298300B09C20B9000CFE4F0A3F090F0
:1004530000CDE0FEA3E0FFA3E0FCA3E0FDC39FEC1F
:100463009E50779000CAE0FBA3E0FAA3E0F98D82E7
:100473008C83E5991202459000D5E0FEA3E0FFC30B
:10048300ED9FEC9E50469000CDE0FCA3E0FDEF9D78
:10049300EE9C50389000D2E0FBA3E0FAA3E0F99081
:1004A30000CFE0FEA3E0FFF5828E83120218FD90D9
:1004B30000CAE0FBA3E0FAA3E0F98F828E83120265
:1004C300186D60089000CF74FFF0A3F09000D0E0A7
:1004D30004F070069000CFE004F09000CDE0FEA39E
:1004E300E0FFC39000D0E09F9000CFE09E400690D5
:1004F30000D17401F0D007D006D005D004D003D0CA
:1005030002D001D000D0D0D082D083D0F0D0E0325E
:020F7400152E38
:0A0F76009000D1E0A82EF6FFE4F091
:030F8000052E2219
:100BD0008F258E248D238C22759850438E40538E02
:100BE000FE53890FE47B04FAF9F8900F0A1203C14F
:100BF000120308AB25AA24A923A822120308EFF4A4
:100C000004F58BE47B04FAF9F8900F0A1203C11281
:100C10000308AB25AA24A923A822120308C3E49F32
:100C2000FFE49EFE74019DFDE49CFC780812039A8B
:100C30008F8DC2ABD28ED2AC90004E74FFF0A374F5
:070C40000FF0A37474F02211
:100E57009000CAEBF0A3EAF0A3E9F0A3ECF0A3ED4E
:100E6700F09000D5E52AF0A3E52BF09000D2E52716
:100E7700F0A3E528F0A3E529F0D20BE49000D1F028
:010E87002248
:100EE2009000C9E0701F9000C2EBF0A3EAF0A3E902
:100EF200F0E4A3F0A3F0A3ECF0A3EDF0A37401F0EF
:080F0200D2997F02227F032235
:0B0F8E009000C9E07002FF227F0122EA
:03000000020A3CB5
:0C0A3C00787FE4F6D8FD75812E020A8355
:10021800BB010CE58229F582E5833AF583E022509B
:1002280006E92582F8E622BBFE06E92582F8E222E5
:0D023800E58229F582E5833AF583E49322FF
:10024500F8BB010DE58229F582E5833AF583E8F0EF
:10025500225006E92582C8F622BBFE05E92582C89B
:02026500F22283
:10026700A3F8E0C5F025F0F0E5821582700215834A
:06027700E0C838F0E822A7
:10027D00E88FF0A4CC8BF0A42CFCE98EF0A42CFC20
:10028D008AF0EDA42CFCEA8EF0A4CDA8F08BF0A49E
:10029D002DCC3825F0FDE98FF0A42CCD35F0FCEBFD
:1002AD008EF0A4FEA9F0EB8FF0A4CFC5F02ECD39C2
:0F02BD00FEE43CFCEAA42DCE35F0FDE43CFC222F
:1002CC0075F008758200EF2FFFEE33FECD33CDCCE9
:1002DC0033CCC58233C5829BED9AEC99E58298406C
:1002EC000CF582EE9BFEED9AFDEC99FC0FD5F0D649
:1002FC00E4CEFBE4CDFAE4CCF9A88222B800C1B973
:10030C000059BA002DEC8BF084CFCECDFCE5F0CBB0
:10031C00F97818EF2FFFEE33FEED33FDEC33FCEBE9
:10032C0033FB10D703994004EB99FB0FD8E5E4F9A4
:10033C00FA227818EF2FFFEE33FEED33FDEC33FC91
:10034C00C933C910D7059BE99A4007EC9BFCE99A85
:10035C00F90FD8E0E4C9FAE4CCFB2275F010EF2FCA
:10036C00FFEE33FEED33FDCC33CCC833C810D707CA
:10037C009BEC9AE899400AED9BFDEC9AFCE899F805
:0E038C000FD5F0DAE4CDFBE4CCFAE4C8F92298
:100D3300C2D5E830E70FB2D5E4C39BFBE49AFAE4EB
:100D430099F9E498F8EC30E717B2D5120D6912035C
:100D530008E4C39BFBE49AFAE499F9E498F8800366
:100D630012030830D50DE4C39FFFE49EFEE49DFD0E
:040D7300E49CFC22DE
:10039A00E8600FECC313FCED13FDEE13FEEF13FF41
:0303AA00D8F12265
:1003AD00E86010ECA2E713FCED13FDEE13FEEF1366
:0403BD00FFD8F02253
:1003C100E493FC740193FD740293FE740393FF2282
:0C03D100ECF0A3EDF0A3EEF0A3EFF0229F
:0603DD008A838982E473AB
:100A4800020909E493A3F8E493A34003F68001F2B2
:100A580008DFF48029E493A3F85407240CC8C333AF
:100A6800C4540F4420C8834004F456800146F6DF7E
:100A7800E4800B01020408102040809006E9E47E1F
:100A8800019360BCA3FF543F30E509541FFEE49373
:100A9800A360010ECF54C025E060A840B8E493A33A
:100AA800FAE493A3F8E493A3C8C582C8CAC583CA65
:100AB800F0A3C8C582C8CAC583CADFE9DEE780BE1D
:0107AB00004D
:00000001FF
